:100000000C945D000C9485000C9485000C94850084
:100010000C9485000C9485000C9485000C9485004C
:100020000C9485000C9485000C9485000C9485003C
:100030000C9485000C9485000C9485000C9485002C
:100040000C947B070C9485000C944A050C942405B1
:100050000C9485000C9485000C9485000C9485000C
:100060000C9485000C94850000000008000201003B
:100070000003040700000000000000000000000072
:10008000250028002B0000000000240027002A0083
:10009000040404040404040402020202020203032E
:1000A0000303030301020408102040800102040836
:1000B0001020010204081020750911241FBECFEF83
:1000C000D8E0DEBFCDBF11E0A0E0B1E0E8E0F7E1AD
:1000D00002C005900D92A235B107D9F722E0A2E542
:1000E000B1E001C01D92A836B207E1F710E0CDE5FE
:1000F000D0E004C02197FE010E94470ACC35D10709
:10010000C9F70E94C5070C94820B0C94000080E98B
:1001100091E00895CF92DF92EF92FF920F931F9399
:10012000CF93DF936C017A018B01C0E0D0E0CE1554
:10013000DF0581F0D8016D918D01D601ED91FC9123
:100140000190F081E02DC6010995892B11F02196CF
:10015000EECF7E01C701DF91CF911F910F91FF90EC
:10016000EF90DF90CF900895089580E090E008959B
:10017000FC01538D448D252F30E0842F90E0821BAD
:10018000930B541710F0CF96089501970895FC0132
:10019000918D828D981761F0828DDF01A80FB11DBE
:1001A0005D968C91928D9F5F9F73928F90E00895E2
:1001B0008FEF9FEF0895FC01918D828D981731F09C
:1001C000828DE80FF11D858D90E008958FEF9FEFF0
:1001D0000895FC01918D228D892F90E0805C9F4FC6
:1001E000821B91098F739927089585E791E00E94FA
:1001F000E90021E0892B09F420E0822F0895FC0119
:10020000848DDF01A80FB11DA35ABF4F2C91848D9F
:1002100090E001968F739927848FA689B7892C93D4
:10022000A089B1898C91837080648C93938D848D27
:10023000981306C00288F389E02D80818F7D80832A
:100240000895EF92FF920F931F93CF93DF93EC01EA
:1002500081E0888F9B8D8C8D981305C0E889F98982
:10026000808185FD26C0F62E0B8D10E00F5F1F4F9D
:100270000F731127E02E8C8DE8120CC00FB607FC0F
:10028000FACFE889F989808185FFF5CFCE010E94F8
:10029000FF00F1CF8B8DFE01E80FF11DE35AFF4FF8
:1002A000F0829FB7F8940B8FEA89FB898081806286
:1002B0000AC09FB7F894EE89FF896083E889F989BD
:1002C00080818370806480839FBF81E090E0DF91B4
:1002D000CF911F910F91FF90EF900895CF93DF93EF
:1002E000EC01888D8823C9F0EA89FB89808185FD2E
:1002F00005C0A889B9898C9186FD0FC00FB607FC8F
:10030000F5CF808185FFF2CFA889B9898C9185FFCF
:10031000EDCFCE010E94FF00E7CFDF91CF9108958E
:1003200080E090E0892B29F00E94F50081110C9467
:10033000000008950F931F93CF93DF9320915301F3
:100340002F5F322F37703093530120FF02C020E817
:1003500001C020E031FD2064347009F02062205F8C
:10036000FC01EC01239600E011E06485662331F086
:1003700070E0C8010E94EB096F5F01C060E0618717
:10038000322F369F030E30E0311D1124311102C08F
:10039000168202C031503683662311F061506187A6
:1003A0003196CE17DF0709F7DF91CF911F910F919B
:1003B0000895209A08950F931F93CF93DF93CDB79D
:1003C000DEB762970FB6F894DEBF0FBECDBF8C01CB
:1003D000F901DC011C968C917A8369835C834B83E1
:1003E0005E834D8390819D8791819E8792819F87B7
:1003F000813029F4CE0101960E949A0106C01C8624
:100400001B861A86198618861F8283E0888B1A8AB3
:10041000198AD801ED91FC910484F585E02DBE0187
:100420006F5F7F4FC801099562960FB6F894DEBFE3
:100430000FBECDBFDF91CF911F910F9108950F9304
:100440001F93CF93DF93CDB7DEB762970FB6F894C3
:10045000DEBF0FBECDBF8C01F901DC011C968C9173
:100460007A8369835C834B835E834D8390819D8710
:1004700091819E8792819F87813029F4CE010196D8
:100480000E949A0106C01C861B861A861986188649
:100490001F82188A1A8A198AD801ED91FC91048466
:1004A000F585E02DBE016F5F7F4FC801099562960B
:1004B0000FB6F894DEBF0FBECDBFDF91CF911F9175
:1004C0000F91089508950895CF93DF9300D000D041
:1004D00000D0CDB7DEB7AB011C821D821E82DC01CD
:1004E000ED91FC910190F081E02D19821A821B821E
:1004F0009E012F5F3F4FBE016C5F7F4F099526968F
:100500000FB6F894DEBF0FBECDBFDF91CF91089537
:10051000FC0185859685089580E090E00895FF921E
:100520000F931F93CF93DF93613899F5EC0185E723
:1005300091E00E94C700F82E85E791E00E94C70075
:10054000082F85E791E00E94C700182FEA81FB8100
:10055000CF01C096F082018312833396E817F90722
:10056000C9F7809148020E9412066F2D85E791E03D
:100570000E942101602F85E791E00E942101612FF7
:1005800085E791E0DF91CF911F910F91FF900C943F
:100590002101DF91CF911F910F91FF9008950E944B
:1005A0007D0B4F925F926F927F928F92AF92BF922C
:1005B000CF92DF92EF920F931F93CF93DF933C0183
:1005C000EB010E94ED05F30127853089621B730B57
:1005D0006A307105B0F3F894E881F98175B1716002
:1005E00065B16E7F65B9CB8488852C2D281B822F41
:1005F0002887BF844A805B801E850C85DD841F5F51
:100600000F5FD3949E813F81A984EA844281D20105
:1006100020E0C32F522F322F32814427889431118A
:10062000380F08F43FEF8195889410FD430F4795EC
:10063000889411FD430F4795889412FD430F479509
:10064000889413FD430F4795889414FD430F4795F5
:10065000889415FD430F4795889416FD430F4795E1
:10066000889417FD430F47958894232F1111242F49
:100670008C0D422F002C75B900C047FF65B9308141
:100680002227889400C000C0002C65B93111390FB1
:1006900000C0002C75B900C046FF65B908F43FEFF3
:1006A0009195889400C000C0002C65B900FD230F0F
:1006B00000C0002C75B900C045FF65B92795889426
:1006C00001FD230F00C000C0002C65B92795889458
:1006D00000C0002C75B900C044FF65B902FD230FAE
:1006E0002795889400C000C0002C65B903FD230F36
:1006F00000C0002C75B900C043FF65B927958894E8
:1007000004FD230F00C000C0002C65B92795889414
:1007100000C0002C75B900C042FF65B905FD230F6C
:100720002795889400C000C0002C65B906FD230FF2
:1007300000C0002C75B900C041FF65B927958894A9
:1007400007FD230F00C000C0002C65B927958894D1
:1007500000C0002C75B900C040FF65B9432F0111DE
:10076000422F9A0D00C000C0002C65B900C000C027
:10077000002C75B900C047FF65B9318122278894E4
:1007800000C000C0002C65B931113C0F00C0002C26
:1007900075B900C046FF65B908F43FEFEB0DF11DD8
:1007A00000C000C0002C65B9D0FC230F00C0002C95
:1007B00075B900C045FF65B927958894D1FC230F12
:1007C00000C000C0002C65B92795889400C0002C9B
:1007D00075B900C044FF65B9D2FC230F27958894F2
:1007E00000C000C0002C65B9D3FC230F00C0002C52
:1007F00075B900C043FF65B927958894D4FC230FD1
:1008000000C000C0002C65B92795889400C0002C5A
:1008100075B900C042FF65B9D5FC230F27958894B0
:1008200000C000C0002C65B9D6FC230F00C0002C0E
:1008300075B900C041FF65B927958894D7FC230F8F
:1008400000C000C0002C65B92795889400C0002C1A
:1008500075B900C040FF65B9432FD110422FC19533
:1008600000C000C0002C65B9CE0D00C000C075B935
:1008700000C047FF65B932812227889400C000C0BC
:10088000002C65B93111380F00C0002C75B900C0BB
:1008900046FF65B908F43FEF8195889400C000C019
:1008A000002C65B910FD230F00C0002C75B900C0E5
:1008B00045FF65B92795889411FD230F00C000C03E
:1008C000002C65B92795889400C0002C75B900C02C
:1008D00044FF65B912FD230F2795889400C000C01E
:1008E000002C65B913FD230F00C0002C75B900C0A2
:1008F00043FF65B92795889414FD230F00C000C0FD
:10090000002C65B92795889400C0002C75B900C0EB
:1009100042FF65B915FD230F2795889400C000C0DC
:10092000002C65B916FD230F00C0002C75B900C05E
:1009300041FF65B92795889417FD230F00C000C0BB
:10094000002C65B92795889400C0002C75B900C0AB
:1009500040FF65B9432F1111422F8C0D00C000C01C
:10096000002C65B9119709F086CE20EE31E0D20156
:100970000E94210ADC01CB01F4E0B695A79597957A
:100980008795FA95D1F720E030E0B901EAE94E9E6B
:10099000040C611D5E9E600D711D1124650D711D9D
:1009A000860F971FA11DB11D893E43E09407A10545
:1009B000B10508F434C0885E9340A109B10942E052
:1009C000B695A795979587954A95D1F747E0849F67
:1009D000080E211D949F200D311D1124290F311D5A
:1009E0006091520170E0860F971F820F931F409114
:1009F0006F01509170016091710170917201292F06
:100A00003327420F531F611D711D40936F01509397
:100A10007001609371017093720180935201789418
:100A20000E94ED05F301708B6787DF91CF911F91D5
:100A30000F91EF90DF90CF90BF90AF908F907F900D
:100A40006F905F904F9008951F920F920FB60F9284
:100A500011242F933F934F935F936F937F938F93C3
:100A60009F93AF93BF93EF93FF9385E791E00E942D
:100A7000FF00FF91EF91BF91AF919F918F917F9177
:100A80006F915F914F913F912F910F900FBE0F90FB
:100A90001F9018951F920F920FB60F9211242F934B
:100AA0008F939F93EF93FF93E0918501F0918601DF
:100AB0008081E0918B01F0918C0182FD12C09081C8
:100AC00080918E018F5F8F7320918F01821751F07B
:100AD000E0918E01F0E0EB58FE4F958F80938E01F0
:100AE00001C08081FF91EF919F918F912F910F9085
:100AF0000FBE0F901F901895682F85E791E00C941A
:100B0000210190E0FC01EC55FF4F2491FC01E057DE
:100B1000FF4F8491882399F090E0880F991FFC0182
:100B2000EA57FF4FA591B491FC01E458FF4F85911E
:100B300094918FB7F894EC91E22BEC938FBF0895CA
:100B400090E0FC01E859FF4F2491FC01EC55FF4F68
:100B50003491FC01E057FF4FE491EE2309F43CC0CF
:100B6000222339F1233091F038F42130A9F02230DA
:100B700001F584B58F7D12C0273091F02830A1F0A7
:100B80002430B9F4809180008F7D03C08091800073
:100B90008F77809380000DC084B58F7784BD09C0A6
:100BA0008091B0008F7703C08091B0008F7D8093DB
:100BB000B000F0E0EE0FFF1FE458FF4FA591B49195
:100BC0009FB7F894611104C08C913095382302C00E
:100BD000EC913E2B3C939FBF08953FB7F8948091D2
:100BE000560290915702A0915802B091590226B531
:100BF000A89B05C02F3F19F00196A11DB11D3FBF55
:100C0000BA2FA92F982F8827820F911DA11DB11DE2
:100C1000BC01CD0142E0660F771F881F991F4A95DE
:100C2000D1F708953F924F925F926F927F928F9289
:100C30009F92AF92BF92CF92DF92EF92FF920F936B
:100C40001F93CF93DF9300D01F92CDB7DEB7F82E5E
:100C500080914B0290914C02A0914D02B0914E02B6
:100C6000892B8A2B8B2BE9F00E94ED050091600205
:100C7000109161022091620230916302DC01CB018C
:100C8000801B910BA20BB30B00914B0210914C02F5
:100C900020914D0230914E0280179107A207B307B1
:100CA000B8F20E94ED056093600270936102809338
:100CB000620290936302E0915302F09154023097E4
:100CC00059F040914F025091500260915102709141
:100CD00052028F2D0995F82E009173011091740125
:100CE0004F2C512C612C712C0115110509F45FC09A
:100CF000D8011C96EC901C978091490290914A0271
:100D00008436910510F41C961C92D801ED91FC914B
:100D1000A280B38019821A821B82F11014C0F801DC
:100D200045855685628173819E012F5F3F4FC801C3
:100D3000F5010995D8011C96EC921C9714960D911B
:100D40001C911597D1CFF8013696CE0101966C0112
:100D5000480199E0890E911C2191222309F13280EA
:100D60003320F1F0822F90E0A0E0B0E09C01AD01D3
:100D70002F5F3F4F4F4F5F4FC301B2010E94DB090E
:100D80009B01AC01832D90E0A0E0B0E0BC01CD015F
:100D90006F5F7F4F8F4F9F4F0E94DB09D6018C936F
:100DA000BFEFCB1ADB0AE815F905B1F6B8CF809191
:100DB0005E0290915F029C012F5F3F4F30935F0274
:100DC00020935E0249970CF447C08FB7F8940091C6
:100DD0006F011091700120917101309172018FBFEC
:100DE000E0915E02F0915F0288EE93E0E89FB0012F
:100DF000E99F700DF89F700D1124072E000C880BD1
:100E0000990BC0905A02D0905B02E0905C02F09087
:100E10005D02A90198012C193D094E095F090E9444
:100E2000FF0930934A022093490210925F02109208
:100E30005E022FB7F89480916F0190917001A0919C
:100E40007101B09172012FBF80935A0290935B029F
:100E5000A0935C02B0935D020F900F900F90DF9112
:100E6000CF911F910F91FF90EF90DF90CF90BF90A7
:100E7000AF909F908F907F906F905F904F903F903A
:100E800008958F929F92AF92BF92CF92DF92EF928E
:100E9000FF926B017C010E94ED054B015C01C114C6
:100EA000D104E104F104F1F00E94ED05DC01CB0175
:100EB00088199909AA09BB09883E9340A105B10583
:100EC00070F321E0C21AD108E108F10888EE880E1B
:100ED00083E0981EA11CB11CC114D104E104F104EB
:100EE00019F7DDCFFF90EF90DF90CF90BF90AF90DC
:100EF0009F908F9008951F920F920FB60F9211241A
:100F00002F933F938F939F93AF93BF9380916F01E4
:100F100090917001A0917101B091720130915502D0
:100F200023E0230F2D3720F40196A11DB11D05C02C
:100F300026E8230F0296A11DB11D20935502809330
:100F40006F0190937001A0937101B0937201809131
:100F5000560290915702A0915802B0915902019601
:100F6000A11DB11D8093560290935702A093580281
:100F7000B0935902BF91AF919F918F913F912F9163
:100F80000F900FBE0F901F901895789484B58260D3
:100F900084BD84B5816084BD85B5826085BD85B51D
:100FA000816085BD80916E00816080936E0010929B
:100FB0008100809181008260809381008091810016
:100FC00081608093810080918000816080938000A7
:100FD0008091B10084608093B1008091B000816005
:100FE0008093B00080917A00846080937A00809131
:100FF0007A00826080937A0080917A008160809389
:101000007A0080917A00806880937A001092C10003
:10101000E0918501F091860182E08083E091810179
:10102000F09182011082E0918301F091840187E6C2
:10103000808310928D01E0918901F0918A0186E010
:101040008083E0918701F0918801808180618083B5
:10105000E0918701F0918801808188608083E09130
:101060008701F0918801808180688083E091870109
:10107000F091880180818F7D80838091670181114B
:1010800045C010925901109258018FEF80935C0176
:1010900080935D0180935E0180935F018093600186
:1010A0008093610181E0809362011092640110924B
:1010B000630110925B0110925A018091730190912B
:1010C0007401892B31F486E591E09093740180934B
:1010D0007301E0915401F0915501309721F086E5BC
:1010E00091E09583848386E591E090935501809308
:1010F000540110926601109265018AE191E090938B
:1011000057018093560181E080936701209A84E122
:1011100092E0909359018093580180E190E0909380
:1011200064018093630180914B0290914C02A091E5
:101130004D02B0914E02843C29E09207A105B10511
:1011400020F484EC99E0A0E0B0E080934B0290930F
:101150004C02A0934D02B0934E02E4E1F2E0108203
:1011600011821282339682E0E434F807C1F780914D
:1011700048020E94120689E00E94810560E089E031
:101180000E94A00580E090E00E947C058DE00E9416
:10119000810560E08DE00E94A00531E7E32E30E09C
:1011A000F32E08EC10E0D8EC85E791E00E94E9000E
:1011B000181619060CF090C085E791E00E94C70050
:1011C000C82F6AE070E080E090E00E94410761E093
:1011D0008DE00E94A00581E090E00E947C058C2FAC
:1011E0000C2E000C990B0E947C05C7FF0DC080914E
:1011F000120290911302DC01ED91FC910480F581C3
:10120000E02D6C2F099568C0C330D9F0C43009F4C3
:101210005CC0C13009F060C085E791E00E94C70062
:10122000833060F4FC01FF27EE0FFF1FEC5BFD4FE6
:101230002081318130931302209312020E947C0599
:101240004BC089E00E948105F70184918330F9F059
:1012500048F48130B9F08230A1F584B5806284BD54
:10126000D8BD33C08730E9F0883019F1843049F5B2
:101270008091800080628093800010938B000093A7
:101280008A0023C084B5806884BDD7BD1EC080910C
:10129000800080688093800010938900009388000C
:1012A00014C08091B00080688093B000D093B300E8
:1012B0000CC08091B00080628093B000D093B400E5
:1012C00004C061E089E00E94A00589E00E948105D8
:1012D00060E089E00E94A00568EE73E080E090E0A5
:1012E0000E9441070E9490015FCF0F931F93CF93FD
:1012F000DF93E5E7F1E01382128288EE93E0A0E04D
:10130000B0E084839583A683B7838CE291E09183D8
:10131000808385EC90E09587848784EC90E09787C4
:10132000868780EC90E0918B808B81EC90E0938BB2
:10133000828B82EC90E0958B848B86EC90E0978B8F
:10134000868B118E128E138E148E82E090E00E9496
:101350005C0AEC018AE491E09983888304E412E05A
:10136000F801D183C08384E090E00E945C0A2EE300
:1013700031E0FC013183208324E132E03383228396
:10138000F80193838283D0931302C0931202E8E49E
:10139000F2E08FEF808312821182148613868FEF22
:1013A0009FEFDC0187839087A187B287DF91CF9180
:1013B0001F910F910895DB018F939F930E94280A3C
:1013C000BF91AF91A29F800D911DA39F900DB29FE1
:1013D000900D1124089597FB072E16F4009407D062
:1013E00077FD09D00E94330A07FC05D03EF49095A2
:1013F00081959F4F0895709561957F4F0895A1E263
:101400001A2EAA1BBB1BFD010DC0AA1FBB1FEE1F7E
:10141000FF1FA217B307E407F50720F0A21BB30BC9
:10142000E40BF50B661F771F881F991F1A9469F745
:1014300060957095809590959B01AC01BD01CF01A1
:1014400008950E944D0AB7FF0895821B930B0895DB
:101450000E944D0AA59F900DB49F900DA49F800DF2
:10146000911D11240895AA1BBB1B51E107C0AA1F9F
:10147000BB1FA617B70710F0A61BB70B881F991F35
:101480005A95A9F780959095BC01CD010895EE0F6E
:10149000FF1F0590F491E02D0994A29FB001B39F26
:1014A000C001A39F700D811D1124911DB29F700D6D
:1014B000811D1124911D08950F931F93CF93DF93E6
:1014C0008230910510F482E090E0E0916602F091A4
:1014D000670220E030E0A0E0B0E0309719F14081F1
:1014E00051810281138148175907C8F08417950765
:1014F00069F4109731F012960C93129713961C937F
:1015000027C0009366021093670222C0211531059F
:1015100019F04217530718F49A01BD01EF01DF01DA
:10152000F801DBCF21153105F9F0281B390B2430E8
:10153000310580F48A819B816115710521F0FB01E1
:101540009383828304C09093670280936602FE01B6
:10155000329644C0FE01E20FF31F81939193225013
:101560003109398328833AC02091640230916502A1
:10157000232B41F420910201309103013093650245
:101580002093640220910001309101012115310561
:1015900041F42DB73EB74091040150910501241B41
:1015A000350BE0916402F0916502E217F307A0F4B5
:1015B0002E1B3F0B2817390778F0AC014E5F5F4FA9
:1015C0002417350748F04E0F5F1F50936502409374
:1015D00064028193919302C0E0E0F0E0CF01DF91DB
:1015E000CF911F910F910895CF93DF93009709F446
:1015F00081C0FC01329713821282A0916602B091E1
:101600006702109781F420813181820F931F20910E
:101610006402309165022817390751F5F09365028D
:10162000E093640267C0ED0120E030E0CE17DF07F1
:1016300040F44A815B819E0141155105F1F0EA01B8
:10164000F5CFD383C28340815181840F951FC81782
:10165000D90759F488819981840F951F0296918347
:1016600080838A819B81938382832115310529F4AC
:10167000F0936702E09366023DC0E901FB83EA83D1
:1016800049915991C40FD51FEC17FD0761F4808172
:101690009181840F951F0296E90199838883828145
:1016A00093819B838A83E0E0F0E012968D919C9178
:1016B0001397009719F0FD01DC01F7CF8D919C91F4
:1016C00011979D012E5F3F4F820F931F209164025F
:1016D000309165022817390769F4309729F4109280
:1016E00067021092660202C013821282B0936502F2
:1016F000A0936402DF91CF91089581E090E0F89487
:081700000C94820BF894FFCF5A
:1017080000006802200000000000CF02CF02CF02D4
:10171800640288028C02000000001F02DB01D9016C
:10172800640288028700D1020000000021018A00BB
:10173800B8006E01E900C700DB0000000000B4003B
:1017480063028F02B40000000000B400630262026A
:02175800B400DB
:00000001FF
